:020000040800F2
:10000000C007002089010008E71A000881160008CF
:10001000E51A00080B030008B520000800000000E6
:100020000000000000000000000000005B1C000851
:10003000B904000800000000591C0008D91C000881
:10004000A3010008A3010008A3010008A301000800
:10005000A3010008A3010008A3010008A3010008F0
:10006000A3010008A3010008A3010008A3010008E0
:10007000A3010008A3010008A3010008A3010008D0
:10008000A3010008A3010008A3010008A3010008C0
:10009000A3010008A3010008A3010008D10400087F
:1000A000A3010008A3010008A3010008A3010008A0
:1000B000A3010008A3010008A3010008A301000890
:1000C000A3010008A3010008A3010008A301000880
:1000D000A3010008A3010008CD1F0008412000086B
:1000E000BB040008A3010008A301000800F002F807
:1000F00000F03AF80AA090E8000C82448344AAF188
:100100000107DA4501D100F02FF8AFF2090EBAE885
:100110000F0013F0010F18BFFB1A43F0010318473B
:10012000882A0000A82A0000103A24BF78C878C1A5
:10013000FAD8520724BF30C830C144BF04680C60ED
:10014000704700000023002400250026103A28BF35
:1001500078C1FBD8520728BF30C148BF0B60704739
:100160001FB51FBD10B510BD00F099F81146FFF77F
:10017000F7FF01F0DFFF00F0B7F803B4FFF7F2FF7D
:1001800003BC00F0BBF8000009488047094800475D
:10019000FEE7FEE7FEE7FEE7FEE7FEE7FEE7FEE737
:1001A000FEE7FEE704480549054A064B7047000094
:1001B000331D0008ED000008C0010020C00700202A
:1001C000C0030020C003002010B5431C02E010F85B
:1001D000011B71B18107FAD14FF0013202C88C1AAC
:1001E0008C4314EAC211F9D0C01A0A0603D0C01E0B
:1001F00010BDC01A10BD0A0401D0801E10BD090236
:10020000FCD0401E10BD4FF000020429C0F0128047
:1002100010F0030C00F01B80CCF1040CBCF1020FB9
:1002200018BF00F8012BA8BF20F8022BA1EB0C018E
:1002300000F00DB85FEAC17C24BF00F8012B00F884
:10024000012B48BF00F8012B70474FF0000200B5AA
:10025000134694469646203922BFA0E80C50A0E8E9
:100260000C50B1F12001BFF4F7AF090728BFA0E897
:100270000C5048BF0CC05DF804EB890028BF40F863
:10028000042B08BF704748BF20F8022B11F0804FA5
:1002900018BF00F8012B70477047704770477546CC
:1002A00000F028F8AE4605006946534620F00700E6
:1002B000854618B020B5FFF775FFBDE820404FF028
:1002C00000064FF000074FF000084FF0000B21F040
:1002D0000701AC46ACE8C009ACE8C009ACE8C0090D
:1002E000ACE8C0098D4670470446AFF30080204655
:1002F000FFF743FF004870475C01002001491820C8
:10030000ABBEFEE7260002007047FEE710B552A024
:1003100096B00068159015A8FFF756FF82B26423C7
:1003200015A94E4801F05BF915A8FFF74DFF82B201
:10033000642315A94A4801F052F94FF47A74204613
:1003400000F042F947A204AB07CA83E8070004A8FB
:10035000FFF73AFF82B2642304A9404801F03FF955
:1003600004A8FFF731FF82B2642304A93C4801F0DE
:1003700036F9642000F028F93DA207AB07CA83E8EC
:10038000070007A8FFF720FF82B2642307A93348BC
:1003900001F025F907A8FFF717FF82B2642307A928
:1003A0002F4801F01CF9642000F00EF933A00DF184
:1003B000340C0FC88CE80F000DA8FFF705FF82B2C0
:1003C00064230DA9254801F00AF930A10DF1440C70
:1003D0000FC98CE80F0011A8FFF7F6FE82B2642364
:1003E00011A91F4801F0FBF8642000F0EDF82BA1E3
:1003F0000FC98DE80F006846FFF7E6FE82B264235E
:100400006946164801F0EBF86846FFF7DDFE82B258
:1004100064236946124801F0E2F8642000F0D4F841
:1004200022A20AAB07CA83E807000AA8FFF7CCFE9E
:1004300082B264230AA9094801F0D1F80AA8FFF79B
:10044000C3FE82B264230AA9054801F0C8F8204619
:1004500000F0BAF816B010BD2B2B2B00CC000020FA
:100460001401002041542B4D4F4445310D0A00002A
:1004700041542B4C4556454C310D0A0041542B4DEF
:100480004143303030310D0A0000000041542B4D03
:100490004143303030320D0A0000000041542B43FC
:1004A00048414E4E454C30310D0A000041542B520C
:1004B000455345540D0A0000704710B54FF4806055
:1004C00000F0AAF8BDE810404FF4006000F0A4B8B6
:1004D00010B54FF4807000F09FF8BDE810404FF465
:1004E000007000F099B872B6FEE710B590F82110D0
:1004F0000022022905D00421816380F820200120F8
:1005000010BD01680B6823F00E030B6001680B68D7
:1005100023F001030B6090F84030C46B012101FA15
:1005200003F3636080F8211080F82020104610BD8E
:1005300010B590F821100024022903D00421816312
:1005400001243DE001680A6822F00E020A60016899
:100550000A6822F001020A601A4A0168914201D138
:10056000012121E0174A1432914201D110211BE0F0
:10057000144A2832914201D1891515E0114A3C32C2
:10058000914201D189140FE00E4A5032914202D1BA
:100590004FF4803108E00B4A6432914202D14FF4AB
:1005A000801101E04FF08071064A083A5160012144
:1005B00080F82110002180F82010416B01B188479C
:1005C000204610BD0800024070B5044600F020F936
:1005D0000546601C02D004480078044400F018F975
:1005E000401BA042FAD370BD0C000020B0F5807F04
:1005F0000AD0B0F5007F09D0B0F5806F08D0B0F513
:10060000006F07D101F0CAB901F0A4B901F0AEB989
:1006100001F0B8B970470000044910B50A680242F9
:1006200002D00860FFF7E2FF10BD00001404014093
:100630002DE9F84FDFF8B8910024A9F1040B234607
:100640000F2709F1040AABF1040EC9E00125A5400A
:100650002A40AA427DD1674ED1F804C0ACEB06080F
:10066000B44532D014DCBCF1030F3AD009DCBCF144
:10067000000F2AD0BCF1010F1CD0BCF1020F31D108
:100680001DE0BCF1110F17D0BCF1120F2AD119E0F7
:10069000B8F5881F19D006DCB8F5803F15D0B8F53D
:1006A000801F1FD111E0B8F5001F0ED0B8F5041F50
:1006B00018D10AE0CB6815E0CB681B1D12E0CB68AF
:1006C00008330FE0CB680C330CE08B682BB1012BA7
:1006D0004FF0080303D0456104E0042302E0056104
:1006E00000E00023FF2A01D8064601E000F10406DD
:1006F0004FEA840501D9A5F12005D6F8008007FA54
:1007000005FC28EA0C0803FA05F548EA0508C6F8CE
:1007100000804D68ED0062D5374DAE6946F00106A8
:10072000AE61AD6924F0030605F001050095334D77
:1007300006EB050CDCF80850A607360F07FA06F89A
:1007400025EA0805DFF8B880404503D14FF00008DE
:1007500017E044E0DFF8AC80404502D14FF00108DB
:100760000FE0DFF8A480404502D14FF0020808E016
:10077000DFF89880404502D14FF0030801E04FF0C8
:10078000040808FA06F848EA0508CCF808804D681D
:10079000D9F80060ED024D4601D5164300E09643BE
:1007A0002E604D68DAF80060AD02554601D516435B
:1007B00000E096432E604D68DBF80060AD035D46B7
:1007C00001D5164300E096432E604D68DEF80060C8
:1007D000ED03754601D5164300E096432E60641C78
:1007E0000D682A46E5407FF431AFBDE8F88F000080
:1007F00008040140000011100010024000000140F8
:1008000000080140000C01400010014000140140AC
:1008100001488068704700000C00002070B504009B
:1008200025D094F83D00002520B984F83C5020469E
:1008300000F050F9242084F83D002068016821F080
:10084000010101602068016841F4004101602068F5
:10085000016821F40041016000F0A2FA4D4A61688C
:10086000914201D84C4900E04C49884201D2012014
:1008700070BD4B492368B0FBF1F15E6826F03F067E
:100880000E435E606368934206D94FF496735943F2
:100890004FF47A73B1FBF3F12368491C1E6A26F00A
:1008A0003F06314319626168914210D84900401EE9
:1008B000B0FBF1F2521CC2F30B02042A01D2042055
:1008C00022E0B0FBF1F0401CC0F30B001CE0A2687A
:1008D000F2B301EBC10303EB0116431EB3FBF6F3C6
:1008E0005B1C43F480431B0549D092B301EBC1026A
:1008F00002EB0111401EB0FBF1F0401CC0F30B00F5
:1009000040F4804040F400402168CA694CF6FF730F
:100910009A431043C861D4E9071001432068026874
:1009200022F0C00211430160D4E9030101432068B1
:10093000826848F2FF339A4311438160D4E905018C
:1009400008432168CA6822F0FF021043C86001E032
:100950000EE016E02068016841F0010101602564A5
:10096000202084F83D00256384F83E50002070BDAF
:1009700001EB4106431EB3FBF6F35B1CB3E701201A
:10098000C2E701EB4101401EB0FBF1F0401CC0F397
:100990000B00B7E7A086010080841E0000093D001F
:1009A00040420F002DE9FF4F83B09A46DDE91197D1
:1009B00093460446DDF84080FFF72AFF054694F889
:1009C0003D0020287FD1192301224049204600956F
:1009D00000F0EEFE002876D194F83C00012872D099
:1009E000012084F83C0020680168C90703D1016830
:1009F00041F0010101602068016821F4006101609B
:100A0000212084F83D00402084F83E000026266422
:100A1000C4F82480A4F82A90608D20852C48E062D8
:100A2000CDE9007553465A462046049900F040FE31
:100A300070B930E02A463946204600F05FFF58B1D1
:100A4000206C042804D12068016841F40071016021
:100A5000012007B0BDE8F08F606A21680078086166
:100A6000606A401C6062218D491E89B22185628DB9
:100A7000521E628522685369DB435B070BD469B160
:100A800000781061606A401C6062208D401E2085E5
:100A9000608D401E6085208D0028CBD12A463946C6
:100AA000204600F059FE0028CAD154F83D0B0168D9
:100AB00041F400710160202004F81E09E677667792
:100AC0000020C6E7FFE70220C3E700000200100095
:100AD0000000FFFF10B586B0002100910191029146
:100AE000039100681349884222D1134CA06940F059
:100AF0000800A061A069694600F0080004904FF466
:100B00004070009012200190032003900B48FFF7E3
:100B10008FFD0B48416841F0E06141F00201416006
:100B2000E06940F40010E061E06900F40010049016
:100B300006B010BD0054004000100240000C0140FF
:100B400000000140024881680278114481607047CA
:100B50000C000020074810B5016841F01001016049
:100B6000032000F075F80F2000F006F800F024F8DC
:100B7000002010BD0020024070B50D4D04464FF41A
:100B80007A712878B1FBF0F00A490968B1FBF0F0FE
:100B900000F0DCFA48B9102C07D200222146501E82
:100BA00000F036F800206C6070BD012070BD0000C0
:100BB0000C000020180000200C4808B5816941F0A5
:100BC00001018161816901F001010091C16941F078
:100BD0008051C161C06900F08050009004484168B4
:100BE00021F0E06141F00071416008BD0010024059
:100BF00000000140002809DB00F01F0201219140A4
:100C00004009800000F1E020C0F8001170470000AA
:100C1000F0B40E4B1B680C46C3F30223C3F1070567
:100C2000042D00D90425191D072901D2002300E055
:100C3000DB1E012606FA05F1491E214099409E401F
:100C4000761E16403143F0BC01F050BA0CED00E0C6
:100C5000064900F0070208684FF6FF03184040EA13
:100C60000220034A10430860704700000CED00E0CA
:100C70000000FA052DE9F0470F46050061D0434E0C
:100C8000306800F00700B84209D2306820F0070051
:100C900038433060306800F00700B84251D128680E
:100CA0003B4C810712D5400703D5606840F4E060F3
:100CB00060602878000703D5606840F46050606089
:100CC0006068A96820F0F000084360602878C007D9
:100CD00028D06868012810D02168022810D0890720
:100CE00000292EDA616821F0030101436160FFF7FA
:100CF0008FFD804641F288390DE021688903EFE7D6
:100D00008901EDE7FFF784FDA0EB0801494502D911
:100D10000320BDE8F0876068696800F00C00B0EB64
:100D2000810FEFD1306800F00700B8420BD930686E
:100D300020F0070038433060306800F00700B84208
:100D400001D00120E5E72878400705D56068E9680B
:100D500020F4E060084360602878000706D56068EA
:100D6000296920F4605040EAC100606000F038F862
:100D70006168084AC1F30311515CC8400649086024
:100D800006480068FFF7F8FE0020C2E70020024096
:100D900000100240C62100081800002010000020AA
:100DA0000448054900684968044AC1F30221515CBE
:100DB000C84070471800002000100240D6210008EB
:100DC0000448054900684968044AC1F3C221515CDE
:100DD000C84070471800002000100240D6210008CB
:100DE0000E4A51680E4801F00C03042B11D0082B59
:100DF0000FD10C48C1F38343C903C05C0AD55168C5
:100E0000084AC1F34041921E515C054A5043B0FB71
:100E1000F1F0704704494843704700000010024059
:100E200000127A00B621000800093D002DE9F84FB4
:100E3000040070D02078C04DC00749D06868C0F366
:100E40008100012807D06868C0F38100022809D119
:100E50006868C00306D52868800339D56068002813
:100E6000E7D035E06068B0F5803F0BD010B1B0F549
:100E7000A02F11D0286820F480302860286820F442
:100E8000802002E0286840F480302860606890B1DB
:100E9000FFF7BEFC06460AE0286840F48020286080
:100EA000F0E700BFFFF7B4FC801B642873D8286804
:100EB0008003F7D50CE0FFF7ABFC064605E000BF6A
:100EC000FFF7A6FC801B6428F0D828688003F7D4BD
:100ED00020789A4E80074FF001094FF0000839D56D
:100EE000686810F00C0F07D06868C0F38100022812
:100EF00009D16868C00306D42868800714D5206922
:100F0000012808D110E02069B0B1C6F80090FFF7C1
:100F10007FFC074605E00AE1FFF77AFCC01B0228C8
:100F2000C4D828688007F7D52868616920F0F800E0
:100F300040EAC10028600DE0C6F80080FFF768FCB9
:100F4000074604E0FFF764FCC01B022823D828688A
:100F50008007F7D4207800072CD57948A169D9B14A
:100F6000C0F80090FFF754FC074604E0FFF750FC80
:100F7000C01B02280FD8686A8007F7D571484FF464
:100F8000FA510068B0FBF1F0009000BF0098411EDC
:100F90000091FAD20EE080E0C0F80080FFF738FC44
:100FA000074604E0FFF734FCC01B022875D8686AC6
:100FB0008007F7D42078400760D5E8690027C00093
:100FC00008D4E86940F08050E861E869012700F042
:100FD000805000905C480168C90513D401688346BD
:100FE00041F480710160FFF713FC824606E000BF08
:100FF000FFF70EFCA0EB0A0064284ED8DBF80000D7
:10100000C005F5D5E06801280AD008B1052813D03D
:10101000286A20F001002862286A20F0040002E01B
:10102000286A40F001002862E06841F2883B98B1EC
:10103000FFF7EEFB82460BE0286A40F004002862CE
:10104000EEE700BFFFF7E4FBA0EB0A0159455AD8D1
:10105000286A8007F6D50CE0FFF7DAFB824605E048
:10106000FFF7D6FBA0EB0A0159454CD8286A800748
:10107000F6D41FB1E86920F08050E861E06988B3D8
:101080006968C1F38101022944D00228C6F8608052
:1010900004D0FFF7BDFB044638E034E0FFF7B8FBAF
:1010A000074604E0FFF7B4FBC01B02282BD82868D2
:1010B0008001F7D4206AB0F5803F05D16868A16847
:1010C00020F4003008436860D4E9080108436968E7
:1010D00021F4741108436860C6F86090FFF798FB2C
:1010E000044606E025E000BFFFF792FB001B022844
:1010F00009D828688001F7D51BE000BFFFF788FBFF
:10110000001B022802D90320BDE8F88F286880015F
:10111000F4D40EE00128F7D06868226A00F4803128
:10112000914204D1616A00F47010884201D001201C
:10113000EAE70020E8E70000001002400000424219
:1011400080044242180000200070004010B5401E8C
:10115000B0F1807F01D3012010BD4FF0E024606129
:101160000F21601700F0C2FF0020A061072020615E
:10117000002010BD7047704770B5044620680C30E1
:1011800050E8001F21F4907140E80012002AF5D1C8
:101190002068143050E8001F21F0010140E80012DF
:1011A000002AF5D1206B012809D120680C3050E8C5
:1011B000001F21F0100140E80012002AF5D120683C
:1011C00040694FF0200241064FF0000015D521681C
:1011D000143151E8003F23F0400341E80035002D71
:1011E000F5D1E16B49B109484863E06BFFF7A0F91D
:1011F00050B1E06B416B884706E0E08584F84220FF
:1012000020632046FFF7B7FF002070BD451D000892
:1012100070470000F8B5016804460868CA684B6961
:1012200010F00F0F4FF000055AD003F0010602F442
:101230009077374365D0C10705D0D10503D5616CE0
:1012400041F001016164410705D5D90703D0616C04
:1012500041F002016164810705D5D90703D0616CB3
:1012600041F004016164010707D502F02001314318
:1012700003D0616C41F008016164616C00293BD0CE
:10128000800604D5900602D5204600F08DFD20682A
:101290004069616CC0F3801001F0080101432046F1
:1012A0002BD000F05AFD20684069400621D5206807
:1012B000143050E8001F21F0400140E80012002ADD
:1012C000F5D1E06BA8B16D494163E06BFFF730F9F0
:1012D000002811D0E06B416B01B0BDE8F040084739
:1012E00083060ED593060CD52046BDE8F84000F0E5
:1012F0005BBD2046FFF78CFFF8BDFFF789FF6564F3
:10130000F8BD266B2023012E7CD1C6067AD5D606E1
:1013100078D508684868009048694FF00206400692
:1013200040D5E16B086840680004000CE8D0A28D4D
:101330008242E5D9E085886920282DD020680C30CC
:1013400050E8001F21F4807140E80012002AF5D116
:101350002168143151E8000F20F0010041E800023B
:10136000002AF5D12068143050E8001F21F0400118
:1013700040E80012002AF5D184F842302563206845
:101380000C3050E8001F21F0100140E80012002A44
:10139000F5D1E06BFFF7A9F86663A08DE18D401AE7
:1013A00081B22AE0A08DE18D401A81B2E08D002843
:1013B000A6D00029A4D022680C3252E8000F20F4F5
:1013C000907042E80007002FF5D12068143050E8F3
:1013D000002F22F0010240E80027002FF5D184F809
:1013E0004230256320680C3050E8002F22F01002B4
:1013F00040E80023002BF5D166632046FFF7BAFED4
:10140000F8BDFFE705062BD5150629D594F8410050
:101410002128F5D1A068B0F5805F01D12069B0B175
:10142000206A411C2162216800784860E08C401EDF
:101430000004000CE084E3D12068C16821F0800141
:10144000C1602068C16841F04001C160D8E7206AEE
:101450000088C0F308004860206A801C2062E5E72D
:101460004006CDD55006CBD5CA68204622F04002B2
:10147000CA6084F8413000F002F9C1E7351D000868
:1014800070B5040004D094F84100002510B106E0C6
:10149000012070BD84F84050204600F023F824203D
:1014A00084F841002068C16821F40051C1602046E1
:1014B00000F0DCFC2068016921F4904101612068A2
:1014C000416921F02A0141612068C16841F400515D
:1014D000C1606564202084F8410084F8420065639F
:1014E000002070BD30B585B00024009401940294B2
:1014F00003942E4D03682E4802210322AB4227D1CC
:10150000C36943F40033C361C36903F40033049334
:10151000836943F0040383618069264D00F0040071
:1015200004900420CDE90001039269462846FFF7A4
:101530007FF80820CDE90004694628460294FFF7A9
:1015400077F8002211462620FFF762FB262029E0CB
:10155000194DAB4228D1C36943F48023C361C369E9
:1015600003F480230493836943F008038361806953
:10157000039200F0080004902815CDE900010F4DFA
:1015800069462846FFF754F8E814CDE90004694697
:1015900028460294FFF74CF8002211462720FFF757
:1015A00037FB2720FFF726FB05B030BD0044004085
:1015B000001002400008014000480040000C0140BB
:1015C00090F84230202B01D00220704721B11AB18F
:1015D0000023036300F0A6BC0120704770472DE98B
:1015E000F843044690F84100984616460D462028D8
:1015F00002D00220BDE8F88385B17EB1002060648E
:10160000212084F84100FFF703F9A6848146E6848F
:10161000A0682027B0F5805F02D003E00120E9E751
:10162000206910B12E4600250EE000260CE0802136
:10163000204600F092FCA8B9C6B116F8010B21684B
:101640004860E08C401EE084E08C4B464FF0000286
:10165000CDF800800028EAD14FF04001204600F08C
:101660007CFC40B184F841700320C3E735F8020BDD
:10167000C0F30800E3E784F841700020BAE7704740
:10168000FEE701684A69D24352050FD46FF48062C5
:101690004A61002140F8301F2022427381730269A1
:1016A00042F004020261017301207047002070477C
:1016B0002DE9F843044600680D46DDE90897016806
:1016C0009846164641F4807101604B4600224FF067
:1016D00001112046009700F06BF848B120680068BF
:1016E000C00502D54FF4007020640320BDE8F883E4
:1016F000216805F0FE0008613B464A461549204630
:1017000000F09EF888B920684169806900903A46E7
:101710004946204600F0F2F848B1206C042804D174
:101720002068016841F4007101600120DEE7F5B234
:10173000B8F1010F09D02168300A08613A464946DC
:10174000204600F0DBF80028E7D120680561002082
:10175000CCE700000200010070B516460D460446B5
:101760001EE02046FFF78DFF08B1012070BD681C08
:1017700016D0FFF74DF8801BA84200D885B9206825
:101780004069C04340070BD5002044F8300F2021AA
:101790006173A073216941F0200121612073E4E7A6
:1017A00020684069C0434007DBD4002070BD0000C2
:1017B0002DE9F047984617460D460446C1F3074603
:1017C000DDF820902AE000BFB8F1FF3F26D0FFF7F8
:1017D0001FF8A0EB0901414502D8B8F1000F1DD157
:1017E0002068012E16D0806925EA00000004000C54
:1017F00012D00020B84211D1002044F8300F20212F
:101800006173A073216941F02001216120730120DF
:10181000BDE8F0874069E7E70120EBE72068012E8B
:101820000AD0806925EA00000004000C06D00020E0
:10183000B842C9D00020EBE74069F3E70120F7E7A1
:101840002DE9F047984616460D4604464FF000092C
:101850004FF0200AC1F3074723E020684069C043E6
:10186000400515D42068016841F4007101602168C9
:101870006FF480604861C4F8309084F83DA084F82B
:101880003E90216C41F00401216484F83C9021E0F9
:10189000701C06D0FEF7BCFFA0EB0800B04203D8D6
:1018A00016B1012F1FD021E02068012F15D08069CB
:1018B00025EA00000004000C18D000BF44F8309F57
:1018C00084F80DA084F80E90216941F02001216177
:1018D00084F80C900120BDE8F087406925EA0000FB
:1018E0000004000CEAD12068406901E020688069AA
:1018F00025EA00000004000CAFD1ECE770B51646F5
:101900000D4604461EE02046FFF7BBFE08B101204D
:1019100070BD681C16D0FEF77BFF801BA84200D864
:1019200085B920684069C04300060BD5002044F803
:10193000300F20216173A073216941F020012161E2
:101940002073E4E720684069C0430006DBD4002030
:1019500070BD000004484178012903D10021417085
:1019600000F07CB970470000000000200448417876
:10197000002903D10121417000F08EB970470000A9
:101980000000002003484078012802D102A000F0A6
:1019900009BC704700000020303100000348407847
:1019A000012802D102A000F0FDBB7047000000201A
:1019B0003032000000B585B0002003901A488169DC
:1019C00041F020018161816901F020010491816968
:1019D00041F004018161816901F004010491816990
:1019E00041F0080181618069694600F008000490B7
:1019F0004FF4706000900D480190012002900C4857
:101A0000FEF716FE002211461720FFF701F91720F6
:101A1000FFF7F0F8002211462820FFF7F9F82820F8
:101A2000FFF7E8F805B000BD0010024000002110EB
:101A3000000801400D4810B50B4901600C49416098
:101A400000214FF480428160C0E90312416181614D
:101A5000C1610162FEF7E2FE002803D0BDE810403C
:101A6000FEF741BD10BD000000540040780000208A
:101A7000A08601000C4810B50A4901604FF4E1311D
:101A80004160002181600C22C160C0E904128161C3
:101A9000C161FFF7F5FC002803D0BDE81040FEF758
:101AA00022BD10BD00440040CC0000200C4810B501
:101AB0000A4901604FF4E1314160002181600C224C
:101AC000C160C0E904128161C161FFF7D9FC00283F
:101AD00003D0BDE81040FEF706BD10BD0048004031
:101AE00014010020FEE7FEE770B5002404F1B00009
:101AF000C0B200F08DF8002000F08AF8102000F04D
:101B000087F80025002000F095F86D1CEDB2802DBF
:101B1000F8D3641CE4B2082CE8D370BD10B5C8201B
:101B2000FEF752FDBDE8104000F0C6BA10B50446FD
:101B3000B031C8B200F06CF8102040EA141000F088
:101B400067F804F00F00BDE8104000F061B8000035
:101B50002DE9F041203A00240D468046D6B27F2878
:101B600003D900208D1C8046EDB2102B29460FD0E2
:101B7000FFF7DCFF164906EB460001EB4005285D48
:101B800000F058F8641CE4B2062CF8D3BDE8F081EC
:101B9000FFF7CCFF0F4F00BF04EB0610385C00F0DE
:101BA00049F8641CE4B2082CF6D36D1CE9B2404637
:101BB000FFF7BCFF5FF0000404EB06103844007A26
:101BC00000F038F8641CE4B2082CF5D3DEE700001E
:101BD000DE210008062400082DE9F041984617464A
:101BE0000E46044600250DE0434631462046FFF7E9
:101BF000AFFF0834E4B2782C02D90024B61CF6B248
:101C00006D1CEDB27A5D002AEED1BDE8F0810000D6
:101C100001B584B001214FF4807204A88DE807005B
:101C20000B46002278210248FEF7BCFE05B000BD3D
:101C30007800002001B584B001214FF4807204A81F
:101C40008DE807000B46402278210248FEF7AAFEE5
:101C500005B000BD780000207047704710B5FFF751
:101C600043FF0121052306A20846FFF7B5FF052320
:101C70000721BDE8104005A20120FFF7ADBF00001D
:101C8000486F6D652050616765000000322D3E2071
:101C900073657474696E670010B5FFF725FF012145
:101CA000052306A20846FFF797FF05230721BDE895
:101CB000104006A20120FFF78FBF00005365747427
:101CC000696E67732050616765000000312D3E200A
:101CD000486F6D6500000000FEF734BF30B58FB06F
:101CE00028216846FEF7B1FA14210AA8FEF7ADFADA
:101CF0000121080400240491CDE90010CDE9080475
:101D00000294022507956846FFF790F808B172B66D
:101D1000FEE70F200A90CDE90B540D9400210AA88C
:101D20000E94FEF7A7FF002801D072B6FEE70FB0B1
:101D300030BD704710B5406A0021C185C184FFF7EE
:101D400067FA10BD10B5406A0021C185202280F8D5
:101D500042200163FFF70FFA10BD01680C3151E812
:101D6000002F22F4907241E80023002BF5D1016886
:101D7000143151E8002F22F0010241E80023002B2A
:101D8000F5D1016B012909D101680C3151E8002F0F
:101D900022F0100241E80023002BF5D1202180F829
:101DA000421000210163704708B590F842102229C3
:101DB00001D0022008BD82684FF480539A4201D1BD
:101DC000016921B1816A9A421BD04AB10AE00268D6
:101DD000816A5268C2F308020A80816A891C08E09D
:101DE000026972B10268526802F07F020A70816A69
:101DF000491C8162C18D491E0904090CC18503D0AB
:101E00001BE002685268F1E70168CA6822F020020C
:101E1000CA600168CA6822F48072CA6001684A69AF
:101E200022F001024A61202180F842100021416322
:101E3000026B012A03D0FFF7D1FB002008BD01632C
:101E400001680C3151E8002F22F0100241E8002314
:101E5000002BF5D101680A68D20602D50A684968E4
:101E60000091818DFFF786F9E7E7000070B5044621
:101E700000680169E26821F4405111430161216960
:101E8000A0680843616908432168CA6841F20C638D
:101E90009A430243CA6020684169A26921F44071F3
:101EA000114341611E492068884202D1FEF788FF34
:101EB00001E0FEF775FF00EBC00101EB0012606866
:101EC00064218000B2FBF0F3B3FBF1F36FF018066E
:101ED0007343B2FBF0F5B2FBF0F605EB830532235A
:101EE00003EB0515B5FBF1F5B6FBF1F605F0F005D2
:101EF00005EB0615B2FBF0F6B2FBF0F0B0FBF1F02B
:101F00006FF01802504306EB800003EB0010B0FBAB
:101F1000F1F0216800F00F002844886070BD0000D7
:101F20000038014081628285C285002141642221FE
:101F300080F84210016921B10168CA6842F48072D8
:101F4000CA6001684A6942F001024A610068C168DA
:101F500041F02001C160002070472DE9F843984608
:101F600017460D460446089E24E0701C22D0FEF75A
:101F70004FFCA0EB0800B0421AD8CEB12068C1686F
:101F8000490717D5802D15D0402D13D00168C943BE
:101F900009070FD401680025406800902046FFF72C
:101FA000DCFE0820606484F840500120BDE8F8831E
:101FB0000320FBE72068006835EA000004D0002019
:101FC000B842D2D00020F1E70120F9E708B5154862
:101FD000FFF720F9134908680268D20621D5026884
:101FE00040680090C88D1049C0F1400008700D484D
:101FF000FFF7C2F810230DA204210020FFF7ECFD2B
:1020000010230E4A06210020FFF7E6FD40210B4871
:10201000FEF7F9F8BDE80840402208490148FFF7FB
:10202000CFBA08BDCC0000200200002052656365D5
:102030006976656420446174613A00000300002001
:1020400008B51548FFF7E6F8134908680268D20694
:1020500021D5026840680090C88D1049C0F1400049
:1020600008700D48FFF788F8002110230CA20846DD
:10207000FFF7B2FD10230E4A02210020FFF7ACFD4E
:1020800040210B48FEF7BFF8BDE808404022084950
:102090000148FFF795BA08BD140100200200002096
:1020A0005265636976656420696E73743A00000056
:1020B00038000020FEE70000FEB50024094F4FF471
:1020C000807501263819CDE9000601230022782108
:1020D00002950548FEF766FC641CE4B21B2CF1D3A4
:1020E000FEBD00001C000020780000200907090E3A
:1020F000002804DB00F1E02080F80014704700F0B5
:102100000F0000F1E02080F8141D70471CB506A1F7
:102110006423D1E90001CDE90001042269460448A5
:10212000FFF75DFA1CBD000033362E3700000000BB
:1021300014010020FEF70EFDFFF7D0FDFFF73AFC7B
:10214000FFF778FCFFF796FCFFF7B0FC402212493E
:102150001248FFF735FA11480068C16841F01001D4
:10216000C160FEF7D3F8FFF7D9FCFFF7BDFCFFF71E
:1021700075FD0B4C0120002520702078012806D029
:10218000022806D0032804D00428F6D101E0FFF786
:10219000BDFF2570F1E70000380000201401002089
:1021A000000000206423014603220148FFF717BA0C
:1021B000CC000020010202030405060708090A0BEF
:1021C0000C0D0E0F101000000000000000000102B6
:1021D00003040607080900000000010203040000D0
:1021E000000000000000002F0000000007000700B2
:1021F00000147F147F1400242A7F2A1200626408CE
:10220000132300364955225000000503000000004A
:102210001C224100000041221C000014083E08144A
:102220000008083E0808000000A060000008080838
:102230000808000060600000002010080402003E52
:102240005149453E0000427F4000004261514946ED
:10225000002141454B31001814127F1000274545DD
:102260004539003C4A4949300001710905030036EF
:102270004949493600064949291E00003636000002
:102280000000563600000008142241000014141407
:102290001414000041221408000201510906003202
:1022A0004959513E007C1211127C007F4949493640
:1022B000003E41414122007F4141221C007F4949AB
:1022C0004941007F09090901003E4149497A007FDF
:1022D0000808087F0000417F4100002040413F0185
:1022E000007F08142241007F40404040007F020CE4
:1022F000027F007F0408107F003E4141413E007F85
:1023000009090906003E4151215E007F091929464D
:102310000046494949310001017F0101003F404029
:10232000403F001F2040201F003F4038403F0063D7
:1023300014081463000708700807006151494543F9
:1023400000007F41410000552A552A5500004141B7
:102350007F000004020102040040404040400000B1
:1023600001020400002054545478007F484444384B
:1023700000384444442000384444487F00385454D2
:10238000541800087E0901020018A4A4A47C007F50
:10239000080404780000447D4000004080847D00F3
:1023A000007F102844000000417F4000007C04189A
:1023B0000478007C0804047800384444443800FC65
:1023C000242424180018242418FC007C0804040881
:1023D00000485454542000043F444020003C4040F6
:1023E000207C001C2040201C003C4030403C00442D
:1023F00028102844001CA0A0A07C004464544C4435
:102400001414141414140000000000000000000054
:10241000000000000000000000F8000000000000C4
:1024200000333000000000100C06100C0600000005
:1024300000000000000040C07840C0784000043F29
:1024400004043F040400007088FC083000000018F9
:1024500020FF211E0000F008F000E018000000211D
:102460001C031E211E0000F00888700000001E21C1
:1024700023241927211010160E0000000000000070
:10248000000000000000000000E01804020000004E
:1024900000071820400000020418E000000000407F
:1024A000201807000000404080F0804040000202F9
:1024B000010F01020200000000F000000000010115
:1024C000011F01010100000000000000000080B0B9
:1024D000700000000000000000000000000000018B
:1024E00001010101010100000000000000000030B6
:1024F0003000000000000000000080601804006050
:1025000018060100000000E010080810E000000FAD
:10251000102020100F00001010F800000000002014
:10252000203F20200000007008080888700000305C
:102530002824222130000030088888483000001804
:10254000202020110E000000C02010F8000000071D
:102550000424243F240000F8088888080800001993
:10256000212020110E0000E0108888180000000FC4
:10257000112020110E0000380808C838080000009B
:10258000003F000000000070880808887000001CF0
:10259000222121221C0000E010080810E0000000A9
:1025A000312222110F00000000C0C0000000000016
:1025B000003030000000000000800000000000003B
:1025C0008060000000000000804020100800000132
:1025D00002040810200040404040404040000404F5
:1025E00004040404040000081020408000000020BF
:1025F000100804020100007048080808F0000000FC
:10260000003036010000C030C828E810E00007188C
:10261000272423140B000000C038E0000000203CF9
:1026200023020227382008F8888888700000203F9D
:10263000202020110E00C0300808080838000718B4
:1026400020202010080008F808080810E000203FAB
:10265000202020100F0008F88888E8081000203F8C
:1026600020202320180008F88888E8081000203F60
:10267000200003000000C0300808083800000718D8
:102680002020221E020008F808000008F808203F59
:10269000210101213F20000808F80808000000205F
:1026A000203F2020000000000808F8080800C08033
:1026B00080807F00000008F888C028180800203FAC
:1026C00020012638200008F8080000000000203F04
:1026D00020202020300008F8F800F8F80800203FFB
:1026E000003F003F200008F830C00008F808203FF5
:1026F000200007183F00E01008080810E0000F1045
:10270000202020100F0008F808080808F000203FDB
:10271000210101010000E01008080810E0000F1876
:10272000242438504F0008F8888888887000203F9B
:102730002000030C3020007088080808380000389A
:10274000202121221C00180808F8080818000000A1
:10275000203F2000000008F808000008F808001FCB
:10276000202020201F000878880000C838080000BA
:1027700007380E010000F80800F80008F800033CD4
:102780000700073C0300081868808068180820309C
:102790002C03032C30200838C800C838080000007B
:1027A000203F2000000010080808C8380800203822
:1027B000262120201800000000FE02020200000076
:1027C000007F40404000000C30C0000000000000CE
:1027D00000010638C00000020202FE0000000040B6
:1027E00040407F00000000000402020204000000DC
:1027F00000000000000000000000000000008080D9
:1028000080808080808000020204000000000000C0
:10281000000000000000000080808080000000199F
:10282000242222223F2008F8008080000000003F80
:10283000112020110E000000008080800000000E9A
:10284000112020201100000000808088F800000E78
:10285000112020103F200000808080800000001F99
:10286000222222221300008080F08888881800200D
:10287000203F202000000000808080808000006BCE
:1028800094949493600008F8008080800000203FBA
:10289000210000203F2000809898000000000020C8
:1028A000203F20200000000000809898000000C019
:1028B0008080807F000008F8000080808000203F3A
:1028C00024022D302000000808F80000000000203D
:1028D000203F202000008080808080808000203F7A
:1028E00020003F20003F8080008080800000203F4B
:1028F000210000203F200000808080800000001F19
:10290000202020201F00808000808000000080FFA9
:10291000A12020110E000000008080808000000EA9
:10292000112020A0FF8080808000808080002020F7
:102930003F21200001000000808080808000003363
:10294000242424241900008080E0808000000000FE
:10295000001F202000008080000000808000001FF9
:10296000202020103F208080800000808080000197
:102970000E300806010080800080008080800F30CB
:102980000C030C300F00008080008080800000204D
:10299000312E0E3120008080800000808080808178
:1029A0008E701806010000808080808080000021E9
:1029B000302C2221300000000000807C0202000048
:1029C0000000003F40400002027C80000000004008
:1029D000403F0000000000000000FF000000000079
:1029E0000000FF0000000000041464040CB40202A4
:1029F0004233020000000000000000000000000060
:102A000000000000000040412111090503FF0305FB
:102A100009112141400000000000000000000000FA
:102A20000000000000001010D0FF90001091969060
:102A3000F0909493100000000000000000000000DF
:102A4000000000000000040300FF0001040404046F
:102A5000FF04040404000000000000000000000067
:102A6000000000000000008060F80704E4A4A4BF98
:102A7000A4A4E40400000000000000000000000026
:102A8000000000000000010000FF40407F4A4A4A69
:102A90004A4A7F40400000000000000000000000A3
:102AA0000000000000000000F888888888FF8888FF
:102AB0008888F8000000000000000000000000000E
:102AC00000000000000000001F080808087F888838
:102AD00088889F80F00000000000000000000000D7
:102AE0000000000000000000FE0282828282FA8262
:102AF00082828282020000000000000000000000CC
:102B000000000000000080601F40404040407F40C7
:102B10004044584040000000000000000000000059
:102B2000000000000000008060F80704E4A4A4BFD7
:102B3000A4A4E40400000000000000000000000065
:102B4000000000000000010000FF40407F4A4A4AA8
:102B50004A4A7F40400000000000000000000000E2
:102B60000000000000000000000000000000000065
:102B70000000000000000000000000000000000055
:102B800000000000000000003636000000000000D9
:102B90000000000000000000000000000000000035
:102BA0000000000000000000C82B0008000000200A
:102BB0003800000028010008002C00083800002020
:102BC0008807000044010008000000000000000029
:102BD00000000000010000001000000000000000E4
:102BE00000127A00AE001040B081FFA1A6A83FC835
:102BF000D300D580D805D9F1DA12D8308D14AF00C2
:04000005080000ED02
:00000001FF
